{
  "contractName": "Transactions",
  "abi": [
    {
      "inputs": [],
      "stateMutability": "nonpayable",
      "type": "constructor"
    },
    {
      "inputs": [
        {
          "internalType": "uint256",
          "name": "",
          "type": "uint256"
        }
      ],
      "name": "transactions",
      "outputs": [
        {
          "internalType": "uint256",
          "name": "id",
          "type": "uint256"
        },
        {
          "internalType": "string",
          "name": "name",
          "type": "string"
        },
        {
          "internalType": "uint256",
          "name": "valorSuplementado",
          "type": "uint256"
        },
        {
          "internalType": "uint256",
          "name": "date",
          "type": "uint256"
        }
      ],
      "stateMutability": "view",
      "type": "function",
      "constant": true
    },
    {
      "inputs": [],
      "name": "transactionsCount",
      "outputs": [
        {
          "internalType": "uint256",
          "name": "",
          "type": "uint256"
        }
      ],
      "stateMutability": "view",
      "type": "function",
      "constant": true
    },
    {
      "inputs": [
        {
          "internalType": "uint256",
          "name": "",
          "type": "uint256"
        }
      ],
      "name": "unidades",
      "outputs": [
        {
          "internalType": "uint256",
          "name": "id",
          "type": "uint256"
        },
        {
          "internalType": "string",
          "name": "name",
          "type": "string"
        }
      ],
      "stateMutability": "view",
      "type": "function",
      "constant": true
    },
    {
      "inputs": [],
      "name": "unidadesCount",
      "outputs": [
        {
          "internalType": "uint256",
          "name": "",
          "type": "uint256"
        }
      ],
      "stateMutability": "view",
      "type": "function",
      "constant": true
    },
    {
      "inputs": [],
      "name": "getTransactions",
      "outputs": [],
      "stateMutability": "view",
      "type": "function",
      "constant": true
    },
    {
      "inputs": [],
      "name": "getUnidades",
      "outputs": [],
      "stateMutability": "view",
      "type": "function",
      "constant": true
    }
  ],
  "bytecode": "0x6080604052600060025560006004553480156200001b57600080fd5b50336000806101000a81548173ffffffffffffffffffffffffffffffffffffffff021916908373ffffffffffffffffffffffffffffffffffffffff160217905550620000a76040518060400160405280601481526020017f5365637265746172696120646f2045737461646f00000000000000000000000081525060c86107e66200018560201b60201c565b620000f36040518060400160405280600f81526020017f616d69676f2064652047657374616f000000000000000000000000000000000081525061012c6107e66200018560201b60201c565b620001396040518060400160405280601481526020017f5365637265746172696120646f2045737461646f000000000000000000000000815250620002ad60201b60201c565b6200017f6040518060400160405280600f81526020017f616d69676f2064652047657374616f0000000000000000000000000000000000815250620002ad60201b60201c565b620005d0565b3373ffffffffffffffffffffffffffffffffffffffff1660008054906101000a900473ffffffffffffffffffffffffffffffffffffffff1673ffffffffffffffffffffffffffffffffffffffff161462000216576040517f08c379a00000000000000000000000000000000000000000000000000000000081526004016200020d90620004c4565b60405180910390fd5b600460008154809291906200022b906200051f565b9190505550604051806080016040528060045481526020018481526020018381526020018281525060036000600454815260200190815260200160002060008201518160000155602082015181600101908051906020019062000290929190620003b3565b506040820151816002015560608201518160030155905050505050565b3373ffffffffffffffffffffffffffffffffffffffff1660008054906101000a900473ffffffffffffffffffffffffffffffffffffffff1673ffffffffffffffffffffffffffffffffffffffff16146200033e576040517f08c379a00000000000000000000000000000000000000000000000000000000081526004016200033590620004c4565b60405180910390fd5b6002600081548092919062000353906200051f565b91905055506040518060400160405280600254815260200182815250600160006002548152602001908152602001600020600082015181600001556020820151816001019080519060200190620003ac929190620003b3565b5090505050565b828054620003c1906200059b565b90600052602060002090601f016020900481019282620003e5576000855562000431565b82601f106200040057805160ff191683800117855562000431565b8280016001018555821562000431579182015b828111156200043057825182559160200191906001019062000413565b5b50905062000440919062000444565b5090565b5b808211156200045f57600081600090555060010162000445565b5090565b600082825260208201905092915050565b7f41636573736f206e656761646f00000000000000000000000000000000000000600082015250565b6000620004ac600d8362000463565b9150620004b98262000474565b602082019050919050565b60006020820190508181036000830152620004df816200049d565b9050919050565b7f4e487b7100000000000000000000000000000000000000000000000000000000600052601160045260246000fd5b6000819050919050565b60006200052c8262000515565b91507fffffffffffffffffffffffffffffffffffffffffffffffffffffffffffffffff8203620005615762000560620004e6565b5b600182019050919050565b7f4e487b7100000000000000000000000000000000000000000000000000000000600052602260045260246000fd5b60006002820490506001821680620005b457607f821691505b602082108103620005ca57620005c96200056c565b5b50919050565b6105b180620005e06000396000f3fe608060405234801561001057600080fd5b50600436106100625760003560e01c806324dd5167146100675780637cf810ff1461008557806383920e90146100b65780639ace38c2146100c0578063d337262d146100f3578063fd99a746146100fd575b600080fd5b61006f61011b565b60405161007c9190610316565b60405180910390f35b61009f600480360381019061009a9190610362565b610121565b6040516100ad929190610428565b60405180910390f35b6100be6101cd565b005b6100da60048036038101906100d59190610362565b610204565b6040516100ea9493929190610458565b60405180910390f35b6100fb6102bc565b005b6101056102f7565b6040516101129190610316565b60405180910390f35b60025481565b600160205280600052604060002060009150905080600001549080600101805461014a906104d3565b80601f0160208091040260200160405190810160405280929190818152602001828054610176906104d3565b80156101c35780601f10610198576101008083540402835291602001916101c3565b820191906000526020600020905b8154815290600101906020018083116101a657829003601f168201915b5050505050905082565b60005b60045481101561020157600360008281526020019081526020016000205080806101f990610533565b9150506101d0565b50565b600360205280600052604060002060009150905080600001549080600101805461022d906104d3565b80601f0160208091040260200160405190810160405280929190818152602001828054610259906104d3565b80156102a65780601f1061027b576101008083540402835291602001916102a6565b820191906000526020600020905b81548152906001019060200180831161028957829003601f168201915b5050505050908060020154908060030154905084565b6000600190505b6002548110156102f457600360008281526020019081526020016000205080806102ec90610533565b9150506102c3565b50565b60045481565b6000819050919050565b610310816102fd565b82525050565b600060208201905061032b6000830184610307565b92915050565b600080fd5b61033f816102fd565b811461034a57600080fd5b50565b60008135905061035c81610336565b92915050565b60006020828403121561037857610377610331565b5b60006103868482850161034d565b91505092915050565b600081519050919050565b600082825260208201905092915050565b60005b838110156103c95780820151818401526020810190506103ae565b838111156103d8576000848401525b50505050565b6000601f19601f8301169050919050565b60006103fa8261038f565b610404818561039a565b93506104148185602086016103ab565b61041d816103de565b840191505092915050565b600060408201905061043d6000830185610307565b818103602083015261044f81846103ef565b90509392505050565b600060808201905061046d6000830187610307565b818103602083015261047f81866103ef565b905061048e6040830185610307565b61049b6060830184610307565b95945050505050565b7f4e487b7100000000000000000000000000000000000000000000000000000000600052602260045260246000fd5b600060028204905060018216806104eb57607f821691505b6020821081036104fe576104fd6104a4565b5b50919050565b7f4e487b7100000000000000000000000000000000000000000000000000000000600052601160045260246000fd5b600061053e826102fd565b91507fffffffffffffffffffffffffffffffffffffffffffffffffffffffffffffffff82036105705761056f610504565b5b60018201905091905056fea264697066735822122013c83675f66d2219aadbbdd04952d612f7050e00b40719667a6dee37f297f7aa64736f6c634300080d0033",
  "immutableReferences": {},
  "source": "// SPDX-License-Identifier: MIT\r\npragma solidity >=0.4.22;\r\n\r\ncontract Transactions {\r\n\r\n        // Registra o login de ADM\r\n    address private owner;\r\n\r\n     // Modelo de uma unidade gestora - id e nome\r\n\r\n     struct Unidade {\r\n        uint id;\r\n        string name;\r\n    }\r\n\r\n    // Mapeia as unidades gestoras criando um array:\r\n\r\n    mapping(uint => Unidade) public unidades;\r\n\r\n    //uint [] public unidadesGestoras;\r\n\r\n    // Cria um contador para as unidades gestoras existentes:\r\n\r\n    uint public unidadesCount = 0;\r\n\r\n    // Modelo de uma transao- id, orgo que recebeu e valorSuplementado\r\n\r\n    struct Transaction {\r\n        uint id;\r\n        string name;\r\n        uint valorSuplementado;\r\n        uint date;\r\n    }\r\n\r\n    // Mapeia as transaes\r\n\r\n    mapping(uint => Transaction) public transactions;\r\n\r\n    \r\n    // Cria um contador para as transaes j realizadas\r\n\r\n    uint public transactionsCount = 0;\r\n\r\n    // Funo que adiciona uma unidade gestora:\r\n\r\n    function addUnidade (string memory _name) private {\r\n        \r\n        require(owner == msg.sender,\"Acesso negado\");\r\n        unidadesCount ++;\r\n        unidades[unidadesCount] = Unidade(unidadesCount, _name); \r\n    }\r\n\r\n    // Funo que adiciona uma transao:\r\n\r\n    function addTransaction (string memory _name, uint _valorSuplementado, uint _date) private {\r\n        require(owner == msg.sender,\"Acesso negado\");\r\n        transactionsCount ++;\r\n        transactions[transactionsCount] = Transaction(transactionsCount, _name, _valorSuplementado, _date);\r\n    }\r\n\r\n    // Funo que percorre o array com as transaes existentes no contrato pois a funo mapping faz apenas uma por vez e consome muito\r\n\r\n    function getTransactions () public view {\r\n        \r\n        for(uint i=0; i<transactionsCount; i++){\r\n                transactions[i];\r\n        }\r\n    }\r\n\r\n    function getUnidades () public view {\r\n\r\n\r\n      //  return Transactions.deployed().then(function(instance) {\r\n     // electionInstance = instance;\r\n     // return electionInstance.unidades(1);\r\n        //string memory nomes = [string];\r\n\r\n        //Transactions.deployed().then(function(instance) { \r\n        //    app = instance })\r\n        //for: i=1; i<transactionsCount;i++\r\n        //app.unidades(i).then(function(c) { unidade = c; })\r\n\r\n        //nomes[i] = unidade[2].toString()\r\n        // return nomes\r\n        for(uint i=1; i<unidadesCount; i++){\r\n                transactions[i];\r\n        }\r\n    }\r\n\r\n    //Para teste, popula o contrato com duas transaes\r\n\r\n   constructor () {\r\n\r\n        owner = msg.sender;\r\n        addTransaction(\"Secretaria do Estado\", 200, 2022); // ambos os valores passados estaro no input - aqui estamos populando manualmente\r\n        addTransaction(\"amigo de Gestao\", 300, 2022);\r\n        addUnidade(\"Secretaria do Estado\");\r\n        addUnidade(\"amigo de Gestao\");\r\n    }\r\n}\r\n\r\n",
  "sourcePath": "C:\\Users\\Gabriel\\Desktop\\proj-angular\\dapp\\contracts\\Transactions.sol",
  "compiler": {
    "name": "solc",
    "version": "0.8.13+commit.abaa5c0e.Emscripten.clang"
  },
  "schemaVersion": "3.4.7",
  "updatedAt": "2022-04-19T17:04:31.529Z",
  "networkType": "ethereum",
  "devdoc": {
    "kind": "dev",
    "methods": {},
    "version": 1
  },
  "userdoc": {
    "kind": "user",
    "methods": {},
    "version": 1
  }
}